:101800006CC0A0C085C084C083C082C081C080C0BD
:101810007FC07EC07DC07CC07BC07AC079C078C0EC
:1018200077C076C075C0090222000101008032092C
:101830000400000103000000092101010001222A27
:10184000000705810308003212011001FF000008A3
:10185000C016DF05020001020301120349006C00FB
:1018600074006800610072006900610022034E008C
:101870006500630072006F006D0061006E0074000F
:1018800027007300200075004900530050001E031C
:101890007700770077002E006E00630072006D0005
:1018A0006E0074002E006F007200670004030904CC
:1018B0000600FF0901A101150026FF00750885013A
:1018C00095060900B20201850295830900B2020162
:1018D000850395050900B20201C011241FBECFE5A2
:1018E000D4E0DEBFCDBF10E0A0E6B0E0EAEEFFE15D
:1018F00002C005900D92A236B107D9F710E0A2E61A
:10190000B0E001C01D92AE39B107E1F71DD36BC342
:1019100077CFA82FB92F80E090E041E050EA6095A2
:1019200030E009C02D9182279795879510F0842784
:101930009527305EC8F36F5FA8F30895EADF8D93B3
:101940009D930895CF93CFB7CF93C395829BE9F72B
:10195000829B09C0829B07C0829B05C0829B03C0FB
:10196000829B01C0A3C0DF93C0917F00DD27CA57CF
:10197000DF4F829B02C0DF91EBCF2F930F931F931A
:1019800000B32FEF02FB20F94F933F9310B34FEFBB
:10199000012702FB21F93BE031C04E7F012F10B33C
:1019A000216028C0102F4D7F2260000000B329C0A5
:1019B0004B7F2460012F000010B32BC010B3477F72
:1019C00028602AC04F7E00B320612CC04F7D10B329
:1019D00020622FC04F7B00B3206432C0422700B387
:1019E00049934FEF0000102712FB20F910B3147138
:1019F000C9F1297F91F2012702FB21F900B3237F6E
:101A000089F2315058F1102712FB22F910B3277ECA
:101A100079F2012702FB23F92F7C81F200B3102712
:101A200012FB24F92F7971F200C010B3012702FBD9
:101A300025F92F7359F200C000B3102712FB26F9C5
:101A4000223040F200C010B3012702FB27F92430F6
:101A500028F64F77206810B30000F9CF10E41ABFC2
:101A6000002719C03B503195C31BD04010E41ABF6A
:101A70000881033CF9F00B34E9F020917D001981D5
:101A8000110F1213EDCF4A81441F093641F10D3277
:101A900011F0013E29F7009384003F914F911F916F
:101AA0000F912F91DF91CAB7C6FD4FCFCF91CFBF16
:101AB000CF91189520918400222379F31091820010
:101AC000112321F5343022F13093820020937E00DF
:101AD00010917F003BE0311B30937F0019C00091D3
:101AE000820001309CF40AE54F7081F4309160006F
:101AF00034FD10C000936000C2E7D0E00FC027950E
:101B0000A8F45150A9F4220F0000F9CF4AE503C010
:101B100042ED01C0432FC4E1D0E032E011B31461C3
:101B2000929A11BB02B320E414E15F93012756E0BF
:101B300002BB279520F4515021F4220FF9CF012741
:101B400056E000003B5A02BBD0F2279528F45150D2
:101B500029F4220F0000F9CF012756E0279502BB98
:101B600020F4515021F4220FF9CF012756E029919A
:101B7000332302BB21F60B7E10918300110FC65157
:101B8000D04002BB11F010937D0010E41ABF046036
:101B900011B31B7E402F4B7E5F9100C000C002BB83
:101BA00011BB42BB7ACFCF93DF9360918200635029
:101BB00067FDBAC080917F00CCE0D0E0C81BD1099E
:101BC000CA57DF4F80917E008D3209F09CC068308B
:101BD00009F0A8C083EC809372008AE580936000CE
:101BE000109262008881807619F0CE01FBD078C017
:101BF0009A8110927B008981811106C010927C002D
:101C00002BE730E082E068C0853019F490938300C0
:101C100057C0863009F04EC08B81813019F488E4BA
:101C200098E129C0823019F486E298E11AC0833025
:101C300041F5911108C08CEA98E19093810080935E
:101C4000800084E033C0913041F48EE898E19093B5
:101C50008100809380008EE129C0923041F48CE6AF
:101C600098E1909381008093800082E21FC09330BE
:101C7000E1F48AE598E1909381008093800082E10D
:101C800015C0813241F488E398E1909381008093FC
:101C9000800089E00BC0823241F480EB98E19093A0
:101CA0008100809380008AE201C080E090E49093FC
:101CB000620016C0883069F0893029F4909385005D
:101CC0002BE730E004C02BE730E08A3021F080E0E1
:101CD00003C025E830E081E030938100209380004C
:101CE0008F3F39F4988197FD8E8190E89093620040
:101CF00007C09F81911104C09E81981708F4892F15
:101D0000809361000FC08091620087FF0BC0CE01FD
:101D1000B0D08F3F21F48EE18093600003C0811129
:101D200010926100109282008091600084FF46C092
:101D3000809161008F3F09F441C0C82F893008F0BD
:101D4000C8E08C1B809361008091720098E889271D
:101D500080937200CC2331F120918000309181007A
:101D60008091620086FF0BC0F901A3E7B0E08C2FE1
:101D70008A0F94919D9331968A13FBCF09C0D901A4
:101D8000E3E7F0E08C2F8E0F9D9191938E13FCCFA3
:101D90008C2F815090E00196820F931F90938100C9
:101DA000809380006C2F83E790E0C8DDCC5FCC305F
:101DB00019F08FEF80936100C093600084E190B3CD
:101DC000947131F48150D9F71092830010927D0004
:101DD000DF91CF91089585B7826085BF8BB780640E
:101DE0008BBF0895FC018181893099F48281823012
:101DF00029F4109264001092650005C0833029F424
:101E000081E0809365008FEF089581E08093630007
:101E10002EC0813061F59281933071F49093660009
:101E200080919C0090919D00809367009093680042
:101E3000C5D080936A0013C08093660080E48093CD
:101E40006700109268001092690080E280936A0037
:101E500010926B0010926C0088E780936D0086E60C
:101E600090E0909381008093800088E0089580E066
:101E70000895CF93DF93DC01C62F809165008823FE
:101E8000B9F013963C91139720E012968C9112971B
:101E9000282B30939D0020939C0011968C911197D4
:101EA000882309F44DC014966C91C9018FD048C0A5
:101EB00020916E0030916F0080916400811108C004
:101EC00011962C91119712963C9112971496C4502A
:101ED0008C0F80936400807893E061E075E0CA0F16
:101EE000422F4F7391F0F8944D915D91F9010A01E1
:101EF00060935700E89511247894A9014E5F5F4FD5
:101F00009A01D42FDF7371F00AC0F894F90190930D
:101F10005700E895789407B600FCFDCFE4CFCA13CC
:101F2000DFCF09C0F89470935700E895789407B60E
:101F300000FCFDCFF4CF50936F0040936E00C82F8C
:101F40008C2FDF91CF91089581E08BBF82E08BBF12
:101F50008A9A92982FEB86EC9DE221508040904027
:101F6000E1F700C000008A9884E084BBAA9A7894C4
:101F700032DF01C018DE809163008823D9F38A9A8A
:101F800092982FEB86EC9DE2215080409040E1F743
:101F900000C000008A9884E084BBAA9AF89481E18A
:101FA00080935700E8951BBE15BE13BE81E08BBF22
:101FB0001BBEE0917000F09171000995E199FECF90
:101FC0009FBB8EBBE09A99278DB30895262FE19988
:101FD000FECF9FBB8EBB2DBB0FB6F894E29AE19A61
:0A1FE0000FBE01960895F894FFCF9C
:021FEA005AFF9C
:0400000300001800E1
:00000001FF
