:101800006AC09EC083C082C081C080C07FC07EC0CD
:101810007DC07CC07BC07AC079C078C077C076C0FC
:1018200075C074C073C00902220001010080320932
:101830000400000103000000092101010001222A27
:10184000000705810308003212011001FF000008A3
:10185000C016DF050200010203010E0341006C0007
:10186000610069006E00650022034E0065006300A0
:1018700072006F006D0061006E007400270073003D
:10188000200075004900530050001E0377007700C8
:1018900077002E006E00630072006D006E00740011
:1018A0002E006F0072006700040309040600FF09A0
:1018B00001A101150026FF007508850195060900A4
:1018C000B20201850295830900B2020185039505E4
:1018D0000900B20201C011241FBECFE5D4E0DEBF73
:1018E000CDBF10E0A0E6B0E0E4EFFFE102C005905C
:1018F0000D92A236B107D9F710E0A2E6B0E001C020
:101900001D92AD39B107E1F739D372C379CFA82F52
:10191000B92F80E090E041E050EA609530E009C0E6
:101920002D9182279795879510F084279527305E13
:10193000C8F36F5FA8F30895EADF8D939D93089530
:10194000CF93CFB7CF93C395829BE9F7829B09C012
:10195000829B07C0829B05C0829B03C0829B01C003
:10196000A3C0DF93C0917E00DD27CB57DF4F829B62
:1019700002C0DF91EBCF2F930F931F9300B32FEF94
:1019800002FB20F94F933F9310B34FEF012702FB67
:1019900021F93BE031C04E7F012F10B3216028C0F8
:1019A000102F4D7F2260000000B329C04B7F2460C0
:1019B000012F000010B32BC010B3477F28602AC04E
:1019C0004F7E00B320612CC04F7D10B320622FC02A
:1019D0004F7B00B3206432C0422700B349934FEFDE
:1019E0000000102712FB20F910B31471C9F1297FF0
:1019F00091F2012702FB21F900B3237F89F23150D4
:101A000058F1102712FB22F910B3277E79F2012733
:101A100002FB23F92F7C81F200B3102712FB24F97B
:101A20002F7971F200C010B3012702FB25F92F7343
:101A300059F200C000B3102712FB26F9223040F201
:101A400000C010B3012702FB27F9243028F64F7796
:101A5000206810B30000F9CF10E41ABF002719C0A6
:101A60003B503195C31BD04010E41ABF0881033CA2
:101A7000F9F00B34E9F020917C001981110F121359
:101A8000EDCF4A81441F093641F10D3211F0013E7C
:101A900029F7009383003F914F911F910F912F9150
:101AA000DF91CAB7C6FD4FCFCF91CFBFCF91189569
:101AB00020918300222379F310918100112321F5D5
:101AC000343022F13093810020937D0010917E000C
:101AD0003BE0311B30937E0019C000918100013042
:101AE0009CF40AE54F7081F43091600034FD10C021
:101AF00000936000C1E7D0E00FC02795A8F45150D3
:101B0000A9F4220F0000F9CF4AE503C042ED01C05D
:101B1000432FC4E1D0E032E011B31461929A11BBBB
:101B200002B320E414E15F93012756E002BB27953E
:101B300020F4515021F4220FF9CF012756E0000084
:101B40003B5A02BBD0F2279528F4515029F4220FBA
:101B50000000F9CF012756E0279502BB20F4515031
:101B600021F4220FF9CF012756E02991332302BB3C
:101B700021F60B7E10918200110FC651D04002BB9E
:101B800011F010937C0010E41ABF046011B31B7EA7
:101B9000402F4B7E5F9100C000C002BB11BB42BB17
:101BA0007ACFEF92FF921F93CF93DF9360918100E2
:101BB000635067FDC6C080917E009CE0E92EF12C49
:101BC000E81AF10885E890E0E80EF91E80917D00A2
:101BD0008D3209F0A5C0683009F0B1C083EC809364
:101BE00071008AE58093600010926200F7018081A5
:101BF000807619F0C70102D17FC0F701928110925F
:101C00007A008181811106C010927B002AE730E0C2
:101C100082E06EC0853019F4909382005DC08630FA
:101C200009F054C0F7018381813041F488E498E1E0
:101C30009093800080937F0082E144C0823019F449
:101C400086E298E11AC0833041F5911108C088EA14
:101C500098E19093800080937F0084E033C09130BE
:101C600041F48AE898E19093800080937F008EE1B0
:101C700029C0923041F488E698E1909380008093E7
:101C80007F0082E21FC09330E1F48AE598E19093EF
:101C9000800080937F008EE015C0813241F488E39C
:101CA00098E19093800080937F0089E00BC082329E
:101CB00041F48CEA98E19093800080937F008AE25F
:101CC00001C080E090E49093620016C0883069F013
:101CD000893029F4909384002AE730E004C02AE791
:101CE00030E08A3021F080E003C024E830E081E079
:101CF0003093800020937F00F7018F3F39F490816B
:101D000097FD868190E89093620007C097819111BA
:101D100004C09681981708F4892F809361000FC042
:101D20008091620087FF0BC0C701ACD08F3F21F4C8
:101D30008EE18093600003C08111109261001092C7
:101D400081008091600084FF42C0809161008F3FDC
:101D500009F43DC0182F893008F018E0811B8093EA
:101D600061008091710098E88927809371001123A8
:101D700011F1E0917F00F09180008091620086FF78
:101D80000BC0A2E7B0E084918D93319682E790E09A
:101D9000810F8A13F8CF0BC0EF01A2E7B0E0899161
:101DA0008D93FE0182E790E0810F8A13F8CFF093C4
:101DB0008000E0937F00612F82E790E0BDDD1C5F33
:101DC0001C3019F08FEF809361001093600084E164
:101DD00090B3947131F48150D9F71092820010922F
:101DE0007C00DF91CF911F91FF90EF90089585B710
:101DF000826085BF8BB780648BBF0895FC018181B1
:101E0000893099F48281823029F410926400109212
:101E1000650005C0833029F481E0809365008FEF71
:101E2000089581E0809363002BC0813049F5928151
:101E3000933071F49093660080919B0090919C0088
:101E40008093670090936800BED080936A0010C0B2
:101E50008093660080E4809367001092680010927F
:101E6000690080E280936A0010926B0010926C000F
:101E700086E690E09093800080937F0087E008954D
:101E800080E008951F93CF93DF93DC01162F80919C
:101E900065008823B9F013963C91139720E01296C1
:101EA0008C911297282B30939C0020939B001196C5
:101EB0008C911197882309F44FC014966C91C90135
:101EC0008AD04AC020916D0030916E0080916400EC
:101ED000811108C011962C91119712963C9112977E
:101EE00014961450810F809364008078ED01922F36
:101EF0009F7399F0F8944991599191E0F9010A0181
:101F000090935700E89511247894A9014E5F5F4F94
:101F10009A01942F9F7389F00BC0F89493E0F90114
:101F200090935700E895789407B600FCFDCFE2CF78
:101F3000912F9A0F9C13DBCF0AC0F89495E09093F1
:101F40005700E895789407B600FCFDCFF1CF509389
:101F50006E0040936D00182F812FDF91CF911F915C
:101F600008958FEF81BB2FEB87E299E021508040ED
:101F70009040E1F700C0000011BA08958FEF84BBD4
:101F800087E085BB81E08BBF82E08BBFEADF78947E
:101F90002EDF14C006DE999911C0E3DFF89481E1C9
:101FA00080935700E8951BBE15BE13BE81E08BBF22
:101FB0001BBEE0916F00F091700009958091630065
:101FC000882341F3EACFE199FECF9FBB8EBBE09A15
:101FD00099278DB30895262FE199FECF9FBB8EBB25
:101FE0002DBB0FB6F894E29AE19A0FBE01960895C0
:041FF000F894FFCF93
:021FF4005AFF92
:0400000300001800E1
:00000001FF
